:020000040000FA
:100000000C9470010C94A1010C94A1010C94A10119
:100010000C94A1010C94A1010C94A1010C94A101D8
:100020000C94A1010C94A1010C94A1010C94A101C8
:100030000C94A1010C948B0B0C94A1010C94A101C4
:100040000C94A1010C94A1010C94A1010C94A101A8
:100050000C94A1010C94A1010C94A1010C94410BEE
:100060000C94A1010C94150C0C94EB0B0C94A101B5
:100070000C94A1010C94A1010C94A1010C94A10178
:100080000C94A1010C94A1010C94A1010C94A10168
:100090000C94A1010C94A1010C94A1010C94A10158
:1000A0000C94A1010C94A1010C94A1010C94A10148
:1000B0000C94A1010C94A1010C94A1010C94A10138
:1000C0000C94A1010C94A1010C94A1010C94A10128
:1000D0000C94A1010C94A1010C94A1010C94A10118
:1000E0000C94A1010C94E6010C9411110C9447108E
:1000F0000C94D3010C94590F0C94EA010C94E00178
:100100000C94C0100C94C1010C941E0F0C9495100B
:100110000C943C0F0C94A4060C944B0C0C942D0FD7
:100120000C9406020C94100F0C94CB010C94C70194
:100130000C94C6060C948A100C9468060C94020267
:100140000C9401020C946E100C94200A0C94F4018F
:100150000C94CF010C9455100C949C070C94FE0643
:100160000C942B100C94A00F0C94DC100C949D0795
:100170000C94CC0F0C94E50F0C9401100C94750F9B
:100180000C94EE010C9495060C94CE100C94800FF8
:100190000C94F5100C94F8010C94DC010C94FC0107
:1001A0000C94BD0F0C9439100C94AE0F0C94B2103B
:1001B0000C94D6010C944B070C94B8060000210057
:1001C000240027002A002D00300033000101000028
:1001D000040107010A010000200023002600290075
:1001E0002C002F003200000100000301060109016C
:1001F00000000A0B02090C0D0E08070304010000A1
:1002000000000000000000000000000000000000EE
:1002100000000000000000000000000012111000AB
:1002200000000000000000000000000000000000CE
:1002300000000000000001021020200808102040EB
:10024000102040800201020108040201010204089A
:100250001020408080402010080402018004020128
:100260008040201008040201080402010102040871
:10027000102040800102040810204080000022006D
:10028000250028002B002E00310034000201000060
:10029000050108010B010505050507050808080803
:1002A000020202020A0A080804040404010101010E
:1002B0000101010103030303030303030407070709
:1002C0000C0C0C0C0C0C0C0C0202020206060606AE
:1002D000060606060B0B0B0B0B0B0B0B02004B0C55
:1002E00011241FBECFEFD1E2DEBFCDBF00E00CBFB7
:1002F00013E0A0E0B2E0EAE9F4E200E00BBF02C0E4
:1003000007900D92A035B107D9F724E0A0E5B3E03E
:1003100001C01D92AA35B207E1F711E0C0E7D1E0B4
:1003200000E006C021970109802FFE010E941512EE
:10033000CF36D10780E00807A9F70E94960C0C94ED
:100340004B120C9400008150823108F05AC0E82F03
:10035000F0E08827E155FE4F8F4F0C941512CF0126
:10036000D301C101C701CB010102D601DC01E001CB
:10037000E601EA01EE01F401F8010102FC010202CA
:100380000602809180008F7780938000089580918D
:1003900080008F7DF9CF80918000877FF5CF84B575
:1003A0008F7784BD089584B58F7DFBCF8091B00099
:1003B0008F778093B00008958091B0008F7DF9CF42
:1003C000809190008F7780939000089580919000A5
:1003D0008F7DF9CF80919000877FF5CF8091A0002D
:1003E0008F778093A00008958091A0008F7DF9CF32
:1003F0008091A000877FF5CF809120018F77809337
:1004000020010895809120018F7DF9CF80912001F6
:10041000877FF5CFCF93DF93282F30E0F901E051AC
:10042000FE4F8491F901EA5CFD4FD491F901EA563F
:10043000FD4FC491CC23A1F081110E94A301EC2FA8
:10044000F0E0EE0FFF1FEA52FE4FA591B491EC9140
:10045000ED2381E090E009F480E0DF91CF910895F1
:1004600080E090E0FACF1F93CF93DF93282F30E006
:10047000F901E051FE4F8491F901EA5CFD4FD491FE
:10048000F901EA56FD4FC491CC23A9F0162F811132
:100490000E94A301EC2FF0E0EE0FFF1FE458FD4F88
:1004A000A591B4918FB7F894EC91111108C0D09533
:1004B000DE23DC938FBFDF91CF911F910895DE2B58
:1004C000F8CFCF93DF9390E0FC01EA5CFD4F2491DD
:1004D0008A569D4FFC0184918823D1F090E0880FCB
:1004E000991FFC01E454FE4FA591B491FC01E4581E
:1004F000FD4FC591D491623071F49FB7F8943C914F
:10050000822F809583238C93E8812E2B28839FBF95
:10051000DF91CF9108958FB7F894EC912E2B2C9307
:100520008FBFF6CF4F925F926F927F928F929F9282
:10053000AF92BF92CF92DF92EF92FF920F931F93F1
:10054000CF93DF9300D01F921F92CDB7DEB78C01FF
:100550002A013B01809109028E33C9F08F3F09F4D3
:1005600092C00F900F900F900F900F90DF91CF914E
:100570001F910F91FF90EF90DF90CF90BF90AF90C1
:100580009F908F907F906F905F904F900895ECEDCB
:10059000F2E084918D8387FDE4CF61E08EE30E94D9
:1005A00061029D81992321F08D81823009F0D2C1B1
:1005B0004801B12CA12C60E072E18AE790E0A5012E
:1005C00098010E94F61129833A834B835C83690169
:1005D0007A0191E0C91AD108E108F1088FEFC81635
:1005E000D104E104F10409F00CF483C160E472E485
:1005F0008FE090E0A50198010E94F61169017A014F
:1006000091E0C91AD108E108F1088D81823009F022
:1006100011C182E09FEFC916D104E104F10409F091
:100620000CF460C160E970ED83E090E0A5019801F1
:100630000E94F61169017A0181E0C81AD108E10827
:10064000F10883E09FEFC916D104E104F10409F039
:100650000CF448C168E478EE81E090E0A5019801CF
:100660000E94F61169017A0191E0C91AD108E108E6
:10067000F1088FEFC816D104E104F10411F00CF079
:1006800019C184E02FC18EE380930902ECEDF2E002
:1006900094919D83892F9F3F09F463CF923009F491
:1006A00069C060F4992381F1913009F445C087FD58
:1006B00058CF61E08EE30E94610276CF9D81943035
:1006C00009F49AC008F478C0953089F71092200197
:1006D00010922101809121018860809321018091F5
:1006E0002101816080932101E4EDF2E0E491F0E0EA
:1006F000EE0FFF1FE458FD4F85919491E4E7F2E07F
:10070000E491E093850349CF14BC15BC84B58260A5
:1007100084BD85B5816085BDE4EDF2E0E491F0E053
:10072000EE0FFF1FE458FD4F85919491E4E7F2E04E
:10073000E491E0938C0331CF1092800010928100FD
:100740008091810088608093810080918100816028
:1007500080938100E4EDF2E0E491F0E0EE0FFF1F02
:10076000E458FD4F85919491E4E7F2E0E491E09341
:100770008B0313CF1092B0001092B1008091B000A3
:1007800082608093B0008091B10081608093B1005D
:10079000E4EDF2E0E491F0E0EE0FFF1FE458FD4FCE
:1007A0008591949190938A0380938903E4E7F2E022
:1007B000E491E0938803F1CE1092900010929100A2
:1007C0008091910088608093910080919100816078
:1007D00080939100E4EDF2E0E491F0E0EE0FFF1F72
:1007E000E458FD4F85919491E4E7F2E0E491E093C1
:1007F000870383E08D83D1CE1092A0001092A100D8
:100800008091A10088608093A1008091A100816007
:100810008093A100E4EDF2E0E491F0E0EE0FFF1F21
:10082000E458FD4F85919491E4E7F2E0E491E09380
:100830008603B3CE8FEFC816D104E104F10409F0AA
:100840000CF486C068E478EE81E090E0A5019801A0
:100850000E94F61169017A0191E0C91AD108E108F4
:10086000F1088D81882309F48DC18FEFC816D1045A
:10087000E104F10409F00CF404CF62E17AE780E0CE
:1008800090E0A50194010E94F61169017A0191E0BE
:10089000C91AD108E108F1088D81882309F447C1FC
:1008A0008FEFC816D104E104F10411F008F048C13B
:1008B00086E018C064E274EF80E090E0A501940146
:1008C0000E94F61169017A0191E0C91AD108E10884
:1008D000F1088FEFC816D104E104F10411F008F01B
:1008E00041C185E09091B100987F892B8093B10040
:1008F00008C081E09D819111F5CF95B5987F892B36
:1009000085BD2FEF3FEFA90141145104610471042B
:1009100009F049C09D81923009F4E7C00CF0CEC0C7
:10092000992309F4D3C0913009F01BCED0928900ED
:10093000C092880020939D0330939E0340939F03B1
:100940005093A00380916F00826080936F0009CE66
:1009500082E0D0CFB12CA12C60E072E18AE790E078
:10096000A50198010E94F61169017A0181E0C81A77
:10097000D108E108F108C114D10491E0E906F104BD
:1009800004F591E08D81813069F580918100887F47
:10099000892B809381002FEF3FEFA901411451046F
:1009A0006104710419F2D801AA0FBB1FA3019201BF
:1009B0000E941D1228EE33E040E050E00E94D41166
:1009C000A9CF68E478EE81E090E0A50198010E944B
:1009D000F61169017A0181E0C81AD108E108F1082D
:1009E00093E0D0CF8D81833001F580919100887F95
:1009F000892B809391002FEF3FEFA90141145104FF
:100A00006104710481F6D0929900C09298002093FD
:100A100095033093960340939703509398038091E6
:100A200071008260809371009CCD8D81843009F5C6
:100A30008091A100887F892B8093A1002FEF3FEF49
:100A4000A901411451046104710409F0ACCFD092A2
:100A5000A900C092A8002093910330939203409381
:100A6000930350939403809172008260809372008C
:100A700078CD8D81853009F044CF80912101887F28
:100A8000892B809321012FEF3FEFA90141145104DD
:100A90006104710409F087CFD0922901C092280126
:100AA00020938D0330938E0340938F0350939003D4
:100AB0008091730082608093730053CD8D81843068
:100AC00031F20CF4A0CF853039F34BCDC7BC209365
:100AD000A1033093A2034093A3035093A4038091F6
:100AE0006E00826080936E003CCDC092B300209374
:100AF000990330939A0340939B0350939C038091F6
:100B000070008260809370002CCDC980DA80EB8009
:100B1000FC809AE0F594E794D794C7949A95D1F71E
:100B200091E0C91AD108E108F10885E0E6CE8FEF1F
:100B3000C816D104E104F10409F038F784E0DDCEF1
:100B4000C980DA80EB80FC808AE0F594E794D79442
:100B5000C7948A95D1F791E0C91AD108E108F10844
:100B600087E0C0CE62E17AE780E090E0A5019401E1
:100B70000E94F61169017A0191E0C91AD108E108D1
:100B8000F1088ECE83E09FEFC916D104E104F10491
:100B900011F00CF072CEB1CE3FB7F8948091810382
:100BA00090918203A0918303B091840326B5A89B02
:100BB00005C02F3F19F00196A11DB11D3FBFBA2FEF
:100BC000A92F982F8827BC01CD01620F711D811DAF
:100BD000911D42E0660F771F881F991F4A95D1F734
:100BE00008958F929F92AF92BF92CF92DF92EF9231
:100BF000FF924B015C010E94CC056B017C010E94BD
:100C0000CC056C197D098E099F09683E73408105EA
:100C10009105A8F321E0821A9108A108B10888EE95
:100C2000C80E83E0D81EE11CF11C81149104A104BC
:100C3000B10429F7FF90EF90DF90CF90BF90AF9075
:100C40009F908F9008959091090289130DC0ECED4B
:100C5000F2E0E4919FEF90930902E230E1F038F482
:100C6000EE2381F0E13089F060E00C943302E4304F
:100C700049F110F1E530C1F7909173009D7F909399
:100C80007300F2CF10926E00EFCF90916F009D7FB6
:100C900090936F00E9CF909170009D7F90937000CA
:100CA00091E09093B0009091B100987F9460909300
:100CB000B1001092B300D8CF909171009D7F9093B6
:100CC0007100D2CF909172009D7F90937200CCCF33
:100CD000AF92BF92CF92DF92EF92FF920F931F934A
:100CE000CF93DF936C017B018B01040F151FEB0188
:100CF0005E01AE18BF08C017D10759F06991D6013F
:100D0000ED91FC910190F081E02DC6011995892BA0
:100D100079F7C501DF91CF911F910F91FF90EF906F
:100D2000DF90CF90BF90AF900895FC01538D448D1C
:100D3000252F30E0842F90E0821B930B541710F086
:100D4000CF96089501970895FC01918D828D981793
:100D500061F0A28DAE0FBF2FB11D5D968C91928D6B
:100D60009F5F9F73928F90E008958FEF9FEF08959C
:100D7000FC01918D828D981731F0828DE80FF11D65
:100D8000858D90E008958FEF9FEF0895FC01918D80
:100D9000228D892F90E0805C9F4F821B91098F7379
:100DA0009927089585EA93E00E94C60621E0892BE1
:100DB00009F420E0822F0895FC01A48DA80FB92F1B
:100DC000B11DA35ABF4F2C91848D90E001968F7373
:100DD0009927848FA689B7892C93A089B1898C9192
:100DE000837080648C93938D848D981306C00288E1
:100DF000F389E02D80818F7D80830895EF92FF92AB
:100E00000F931F93CF93DF93EC0181E0888F9B8D2D
:100E10008C8D98131AC0E889F989808185FF15C0E7
:100E20009FB7F894EE89FF896083E889F98980810A
:100E30008370806480839FBF81E090E0DF91CF91D9
:100E40001F910F91FF90EF900895F62E0B8D10E0FB
:100E50000F5F1F4F0F731127E02E8C8D8E110CC06A
:100E60000FB607FCFACFE889F989808185FFF5CFB5
:100E7000CE010E94DC06F1CFEB8DEC0FFD2FF11DB2
:100E8000E35AFF4FF0829FB7F8940B8FEA89FB89F2
:100E900080818062CFCFCF93DF93EC01888D882350
:100EA000B9F0AA89BB89E889F9898C9185FD03C0CD
:100EB000808186FD0DC00FB607FCF7CF8C9185FFB2
:100EC000F2CF808185FFEDCFCE010E94DC06E9CF15
:100ED000DF91CF91089580E090E0892B29F00E9466
:100EE000D20681110E94000080E090E0892B49F039
:100EF00080E090E0892B29F00E94000081110E947F
:100F0000000080E090E0892B49F080E090E0892BA0
:100F100029F00E94000081110E94000080E090E012
:100F2000892B49F080E090E0892B29F00E94000095
:100F300081110C9400000895089590E080E00895D8
:100F40008F929F92AF92BF920F931F93CF93DF9395
:100F5000CDB7DEB7A1970FB6F894DEBF0FBECDBFF9
:100F600019A2423008F44AE08E010F5D1F4F842E13
:100F7000912CB12CA12CA50194010E94D411E62F33
:100F8000B901CA01EA3044F5E05DD801EE938D0164
:100F9000232B242B252B79F790E080E0109769F024
:100FA000FD0101900020E9F73197AF014A1B5B0B6F
:100FB000BD0182E494E00E946806A1960FB6F89401
:100FC000DEBF0FBECDBFDF91CF911F910F91BF90BC
:100FD000AF909F908F900895E95CD7CF009769F00C
:100FE000FC0101900020E9F73197AF01481B590B34
:100FF000BC0182E494E00C94680690E080E00895DF
:10100000CF93DF93EC0160E08E810E94330261E0B8
:101010008E810E94330260E08E810E9433028BE851
:1010200091E00197F1F7DF91CF910895CF92DF9290
:10103000EF92FF920F931F93CF93DF936C017C018C
:1010400087E0E80EF11CD0E0C0E0062F10E0B80108
:101050000C2E02C0759567950A94E2F76170F7014E
:1010600081917F010E9433022196C430D10579F726
:10107000C601DF91CF911F910F91FF90EF90DF900C
:10108000CF900C940008CF92DF92EF92FF920F93D3
:101090001F93CF93DF93EC01F62E642F8C810E9477
:1010A00033028D818F3F19F060E00E9433020F2DD3
:1010B00010E08F8584FF25C06E0187E0C80ED11C2B
:1010C000F12CE12CB8010E2C02C0759567950A949D
:1010D000E2F76170F60181916F010E943302FFEF28
:1010E000EF1AFF0A88E0E816F10461F7CE01DF91FC
:1010F000CF911F910F91FF90EF90DF90CF900C94C4
:101100000008B80184E0759567958A95E1F7CE01EE
:101110000E9416086F2DCE01DF91CF911F910F9184
:10112000FF90EF90DF90CF900C94160840E0682F6E
:1011300082E494E00C94430881E00E9496088BE3DB
:101140009FE10197F1F70895CF93DF93613029F084
:1011500090915104986090935104609355041092BB
:10116000560490E49093570480935804805C8093D5
:10117000590461E0809146040E9461028091470415
:101180008F3F19F061E00E94610261E080914804A4
:101190000E946102C2E4D4E09E0122543440809156
:1011A000510484FD0BC084E090E021962817390794
:1011B00044F461E08E810E946102EECF88E090E00D
:1011C000F4CF8BE39DE00197F1F760E08091460456
:1011D0000E94330260E0809148040E9433028091B3
:1011E00047048F3F19F060E00E9433028091510460
:1011F00084FD34C063E082E494E00E941608CBE4EE
:10120000D6E4CE010197F1F763E082E494E00E9416
:1012100016082197F1F763E082E494E00E94160833
:1012200083E592E00197F1F762E082E494E00E94A6
:1012300016088091510480620E94960884E0809391
:1012400052048CE00E9496080E949C0882E08093E1
:10125000530486E0DF91CF910C94960880620E943F
:1012600096088BE496E40197F1F78091510480622F
:101270000E94960883E592E00197F1F7809151046E
:1012800080620E949608D5CF90915504691710F09E
:101290006FEF690FE62FF0E0EE5BFB4F9489890F4B
:1012A00080680C949608CF92DF92EF92FF92CF93D2
:1012B000DF938FB7F894C0907D03D0907E03E090C9
:1012C0007F03F09080038FBF80916303811119C069
:1012D00081E080936303C0925703D0925803E09259
:1012E0005903F0925A0310925603109255030E942C
:1012F0009C0860E080E00E9444098CE692E00E9435
:10130000EE0761E080E00E9444098BE792E00E94D2
:10131000EE07E0915503F0915603EE0FFF1FEE5DCF
:10132000FD4F808191810E94EE0782E892E00E9449
:10133000EE07C0915503D0915603FE01EE0FFF1F3B
:10134000E85EFD4F48EE53E060E070E080819181FF
:101350000E9492028091570390915803A0915903E3
:10136000B0915A03A7019601281B390B4A0B5B0B5E
:10137000DA01C901883B9B40A105B10538F1809194
:101380005403811123C08EE30E942306D09362038D
:10139000C093610381E0809354030E949C0860E045
:1013A00080E00E94440986E892E00E94EE0760ED2A
:1013B00077E080E090E00E94F10510926303DF91F6
:1013C000CF91FF90EF90DF90CF90089580E40E943E
:1013D0000A02892BA1F78091500390915103A091AB
:1013E0005203B0915303A7019601281B390B4A0BF6
:1013F0005B0BDA01C901883C9105A105B105F8F242
:10140000C0925003D0925103E0925203F0925303E2
:10141000C0925703D0925803E0925903F0925A03B6
:101420008EE30E942306CE01019665E070E00E94E3
:10143000C011909356038093550310925403BFCF6D
:1014400041E00E94430881E090E00895CF92DF924E
:10145000EF92FF926C01990FEE08FF08F7FE16C09D
:1014600041E06DE282E494E00E944308662777271A
:10147000CB016C197D098E099F094AE00E94A007E3
:101480000196FF90EF90DF90CF9008954AE0C7015A
:10149000B601FF90EF90DF90CF900C94A0070E94D0
:1014A0009C0880915B03882309F49FC083E992E044
:1014B0000E94EE0780917703882341F060E08CE082
:1014C0000E9444098CEB92E00E94EE0761E080E00C
:1014D0000E94440980915B03882309F492C08091A3
:1014E0000002909101020A970CF482C085E892E014
:1014F0000E94EE0780910002909101020E94260A4C
:1015000084EC92E00E94EE0780916A0390916B0355
:101510000A970CF470C085E892E00E94EE07809173
:101520006A0390916B030E94260A84EC92E00E9469
:10153000EE0780916803909169030A970CF45EC0EE
:1015400085E892E00E94EE0780916803909169031C
:101550000E94260A62E080E00E94440986EC92E044
:101560000E94EE0780910402909105020A9724F4EC
:1015700081E992E00E94EE078091040290910502B9
:101580000E94260A8EEC92E00E94EE0780916D0385
:1015900090916E03099724F481E992E00E94EE078E
:1015A00080916D0390916E0301960E94260A8EEC45
:1015B00092E00E94EE0780910202909103020E9445
:1015C000260A63E080E00E94440980ED92E00E94D8
:1015D000EE07E0915C03F0915D03EE0FFF1FE65F05
:1015E000FD4F808191810C94EE0789EA92E060CFF3
:1015F00081E992E07DCF81E992E08FCF81E992E0AD
:10160000A1CF80910602909107020A978CF185E89C
:1016100092E00E94EE0780910602909107020E94DC
:10162000260A84EC92E00E94EE0780916F0390916D
:1016300070030A9704F185E892E00E94EE0780911A
:101640006F03909170030E94260A84EC92E00E943E
:10165000EE0780917103909172030A977CF085E800
:1016600092E00E94EE07809171039091720370CF17
:1016700081E992E0CECF81E992E0DFCF81E992E08B
:10168000F0CF1F920F920FB60F9211242F933F931A
:101690008F939F93AF93BF9380917D0390917E032F
:1016A000A0917F03B091800330917C0323E0230F4E
:1016B0002D3758F50196A11DB11D20937C03809311
:1016C0007D0390937E03A0937F03B093800380916A
:1016D000810390918203A0918303B09184030196CA
:1016E000A11DB11D8093810390938203A093830376
:1016F000B0938403BF91AF919F918F913F912F91B0
:101700000F900FBE0F901F90189526E8230F02969A
:10171000A11DB11DD2CF1F920F920FB60F921124AF
:101720000BB60F922F933F934F935F936F937F93DB
:101730008F939F93AF93BF93EF93FF938091990300
:1017400090919A03A0919B03B0919C03892B8A2BC3
:101750008B2BE1F190918803E0918903F0918A034A
:101760008081892780838091990390919A03A09129
:101770009B03B0919C03181619061A061B069CF4CD
:101780008091990390919A03A0919B03B0919C033F
:101790000197A109B1098093990390939A03A093AB
:1017A0009B03B0939C03FF91EF91BF91AF919F91E9
:1017B0008F917F916F915F914F913F912F910F90FA
:1017C0000BBE0F900FBE0F901F90189580910902CD
:1017D0000E942306E8CF1F920F920FB60F9211249A
:1017E0000BB60F922F933F934F935F936F937F931B
:1017F0008F939F93AF93BF93EF93FF9385EA93E00B
:101800000E94DC06FF91EF91BF91AF919F918F9164
:101810007F916F915F914F913F912F910F900BBEF0
:101820000F900FBE0F901F9018951F920F920FB63A
:101830000F9211240BB60F922F938F939F93EF93D8
:10184000FF93E091B503F091B6038081E091BB0373
:10185000F091BC0382FD1DC090818091BE038F5F1B
:101860008F732091BF03821741F0E091BE03F0E037
:10187000EB55FC4F958F8093BE03FF91EF919F91A5
:101880008F912F910F900BBE0F900FBE0F901F9056
:1018900018958081F2CFE5EAF3E01382128288EE98
:1018A00093E0A0E0B0E084839583A683B78382E5CC
:1018B00092E09183808385EC90E09587848784EC27
:1018C00090E09787868780EC90E0918B808B81EC0D
:1018D00090E0938B828B82EC90E0958B848B86ECEE
:1018E00090E0978B868B118E128E138E148EE2E40D
:1018F000F4E01382128284E692E09183808387E190
:1019000084838FEF858386E1868388E1878389E1FD
:1019100080878AE181878BE182871386148615860A
:101920001686178661E080E10C94A408789484B54B
:10193000826084BD84B5816084BD85B5826085BDCB
:1019400085B5816085BD80916E00816080936E0059
:10195000109281008091810082608093810080914B
:1019600081008160809381008091800081608093FC
:1019700080008091B10084608093B1008091B000BC
:1019800081608093B000809191008260809391008B
:10199000809191008160809391008091900081609E
:1019A000809390008091A10082608093A10080913B
:1019B000A10081608093A1008091A000816080934C
:1019C000A0008091210182608093210180912101FA
:1019D00081608093210180912001816080932001AA
:1019E00080917A00846080937A0080917A0082608E
:1019F00080937A0080917A00816080937A00809150
:101A00007A00806880937A001092C100E091B5035B
:101A1000F091B60382E08083E091B103F091B203CC
:101A20001082E091B303F091B4038FEC80831092A5
:101A3000BD03E091B903F091BA0386E08083E091A1
:101A4000B703F091B803808180618083E091B70390
:101A5000F091B803808188608083E091B703F091B2
:101A6000B803808180688083E091B703F091B80368
:101A700080818F7D808362E085E40E94610262E064
:101A800081E40E94610262E084E40E94610262E0FB
:101A900082E40E94610262E083E40E94610262E0EB
:101AA00080E40E94610262E08FE30E94610261E0D3
:101AB0008DE30E94610260E08DE30E9433020CE23C
:101AC00012E0F801C0810E5F1F4F61E08C2F0E9471
:101AD000610260E08C2F0E943302F2E006331F07A0
:101AE00081F764E084E10E94A40860E080E00E9445
:101AF000440986ED92E00E94EE0761E080E00E94DA
:101B000044098AEE92E00E94EE0760ED77E080E003
:101B100090E00E94F1050E949C0810925D031092D3
:101B20005C0361E08EE30E946102332433944CE055
:101B3000E42EF12C88248394912C8FB7F894409054
:101B40007D0350907E0360907F03709080038FBF71
:101B500083E40E940A02C0E0892BB1F468EC70E0D3
:101B600080E090E00E94F105D0915B03D325D093F3
:101B70005B036D2F8DE30E943302C0917703C11187
:101B800003C0D0936003C1E084E40E940A02892B61
:101B900081F4C091770368EC70E080E090E00E94EF
:101BA000F105C325C0937703C11103C010926003F0
:101BB000C1E082E40E940A02892BA1F468EC70E083
:101BC00080E090E00E94F10580915E0390915F03B8
:101BD000019667E070E00E94C01190935F038093CC
:101BE0005E03C1E085E40E940A02D0917703892B4D
:101BF00049F468EC70E080E090E00E94F105D111BA
:101C0000F4C0C1E081E40E940A02892B49F468EC27
:101C100070E080E090E00E94F105D11101C2C1E0C6
:101C20008FE30E940A02892B49F468EC70E080E09F
:101C300090E00E94F1058EE30E94230680917803D4
:101C400090917903A0917A03B0917B03A301920153
:101C5000281B390B4A0B5B0BDA01C901843F914009
:101C6000A105B10508F4E9C24092780350927903C6
:101C700060927A0370927B0380910802832580939F
:101C80000802D111AFC08091730390917403A091A9
:101C90007503B0917603A3019201281B390B4A0BFF
:101CA0005B0BDA01C901883E9340A105B10508F438
:101CB000C7C240927303509274036092750370928E
:101CC0007603809171039091720301968C33910594
:101CD0000CF0FEC2909372038093710380916C03A9
:101CE000811180C02091060230910702809100028C
:101CF000909101022817390709F074C020916F03F1
:101D00003091700380916A0390916B032817390713
:101D100009F068C0209171033091720380916803CB
:101D2000909169032817390709F05CC030926C0361
:101D30002FB7F89480917D0390917E03A0917F034B
:101D4000B09180032FBF8093640390936503A093A9
:101D50006603B09367030E949C0860E080E00E94E5
:101D6000440988EF92E00E94EE0761E080E00E9463
:101D700044098BE792E00E94EE07E0916103F09145
:101D80006203EE0FFF1FEE5DFD4F808191810E9487
:101D9000EE072CE2A22E22E0B22ED12CC12CC09153
:101DA0006103D0916203F5018081F2E0AF0EB11CB6
:101DB00061E0CC15DD0509F060E00E9433022FEFF1
:101DC000C21AD20A35E0C316D10449F7CC0FDD1F81
:101DD000C85EDD4F40EC54ED6FEF7FEF8881998155
:101DE0000E9492020E944F0A2DC2C091600320916E
:101DF0005E0330915F03CC2309F491C02730310595
:101E000008F000CFF9018827E75FF04F8F4F0C945F
:101E10001512100F1E0F2D0F3C0F590F750F800F4D
:101E200080910002909101020196883191050CF099
:101E3000C9019093010280930002E4CE80916A036D
:101E400090916B0301968C33910514F090E080E043
:101E500090936B0380936A03D5CE80916803909131
:101E6000690301968C33910514F090E080E0909323
:101E7000690380936803C6CEE0916D03F0916E0311
:101E8000EE0FFF1FEA5CFD4F208131811092690344
:101E90001092680380910402909105020196281720
:101EA000390714F481E090E09093050280930402D6
:101EB000A9CE80916D0390916E030196B7010E94A7
:101EC000C01190936E0380936D03880F991FFC01DE
:101ED000EA5CFD4F808191812091040230910502DE
:101EE000821793070CF08DCEDFCF80910202909184
:101EF000030201969093030280930202CD2F82CEBB
:101F000080915C0390915D0301968730910514F0F8
:101F100090E080E090935D0380935C0373CE273064
:101F2000310560F7F9018827E756F04F8F4F0C9481
:101F30001512A00FAE0FBD0FCC0FE50F750F0110DE
:101F400080910602909107020196883191050CF06C
:101F5000C9019093070280930602D0CF80916F034E
:101F60009091700301968C33910514F090E080E01D
:101F70009093700380936F03C1CF80917103909110
:101F8000720301968C33910514F090E080E09093F9
:101F9000720380937103B2CF809104029091050285
:101FA0000196E0916D03F0916E03EE0FFF1FEA5C66
:101FB000FD4F208131812817390714F481E090E02A
:101FC000909305028093040299CF80916D039091C4
:101FD0006E030196B7010E94C01190936E03809327
:101FE0006D03880F991FFC01EA5CFD4F8081918190
:101FF0002091040230910502821793070CF001CE64
:10200000DFCF80915C0390915D030196873091054D
:1020100014F090E080E090935D0380935C036ECFBA
:10202000C091600320915E0330915F03CC2309F4DB
:1020300088C02730310508F0F3CDF9018827EC5D21
:10204000FF4E8F4F0C9415122B103910471055105E
:102050006E108A10951080910002909101020197F4
:1020600097FF02C087E190E0909301028093000205
:10207000D7CD80916A0390916B03019797FF02C0BF
:102080008BE390E090936B0380936A03C9CD8091BA
:10209000680390916903019797FF02C08BE390E07A
:1020A0009093690380936803BBCDE0916D03F09139
:1020B0006E03EE0FFF1FEA5CFD4F3081218180919E
:1020C00004029091050201971816190614F0832F47
:1020D000922F9093050280930402A2CD80916D030C
:1020E00090916E030B96B7010E94C01190936E03FE
:1020F00080936D03880F991FFC01EA5CFD4F80817E
:1021000091812091040230910502821793070CF00F
:1021100086CDDFCF809102029091030201979093C8
:10212000030280930202CD2F7BCD80915C039091BE
:102130005D03019797FDC90190935D0380935C0354
:102140006FCD2730310578F7F9018827E555FF4E27
:102150008F4F0C941512B210C010CE10DC10F51079
:102160008A1011118091060290910702019797FF42
:1021700002C087E190E09093070280930602D3CFDC
:1021800080916F0390917003019797FF02C08BE3DA
:1021900090E09093700380936F03C5CF809171039B
:1021A00090917203019797FF02C08BE390E09093A8
:1021B000720380937103B7CFE0916D03F0916E03CA
:1021C000EE0FFF1FEA5CFD4F3081218180910402F8
:1021D0009091050201971816190614F0832F922F7B
:1021E00090930502809304029ECF80916D0390919D
:1021F0006E030B96B7010E94C01190936E038093FB
:102200006D03880F991FFC01EA5CFD4F808191816D
:102210002091040230910502821793070CF0FFCC45
:10222000DFCF80915C0390915D03019797FDC90119
:1022300090935D0380935C0376CFDD2309F423CD77
:10224000C111D0CD80916C03882339F18091640352
:1022500090916503A0916603B0916703481A590AEB
:102260006A0A7B0A40EA441646E8540641E06406DE
:10227000710498F010926C038EE30E942306CCE266
:10228000D2E08881229660E00E9433020C171D077D
:10229000C1F70E949C080E944F0A80E40E940A0233
:1022A000892B71F480916C0381110AC068EC70E095
:1022B00080E090E00E94F1050E9453090E944F0ABD
:1022C0008091630381110E9453090E946B0735CCF2
:1022D000109272031092710380916F0390917003BA
:1022E00001968C3391052CF49093700380936F03C7
:1022F000F5CC1092700310926F03809106029091BA
:1023000007020196883191052CF49093070280937F
:102310000602E4CC109207021092060220910402F9
:10232000309105022F5F3F4F309305022093040246
:1023300080916D0390916E03FC01EE0FFF1FEA5C2C
:10234000FD4F40815181421753070CF0C7CC90924A
:102350000502809204020196B7010E94C011909379
:102360006E0380936D03892B09F0B8CC8091020233
:102370009091030201969093030280930202AECCE7
:1023800097FB072E16F4009407D077FD09D00E9422
:10239000281207FC05D03EF4909581959F4F089533
:1023A000709561957F4F0895A1E21A2EAA1BBB1B61
:1023B000FD010DC0AA1FBB1FEE1FFF1FA217B30711
:1023C000E407F50720F0A21BB30BE40BF50B661F27
:1023D000771F881F991F1A9469F7609570958095EB
:1023E00090959B01AC01BD01CF010895052E97FB8F
:1023F0001EF400940E940D1257FD07D00E94D411C4
:1024000007FC03D04EF40C940D1250954095309576
:1024100021953F4F4F4F5F4F089590958095709550
:1024200061957F4F8F4F9F4F0895EE0FFF1F881FBD
:102430008BBF0790F691E02D19940E943C12A59F46
:10244000900DB49F900DA49F800D911D11240895AF
:10245000AA1BBB1B51E107C0AA1FBB1FA617B707CA
:1024600010F0A61BB70B881F991F5A95A9F78095E6
:102470009095BC01CD010895A29FB001B39FC0010A
:10248000A39F700D811D1124911DB29F700D811DA0
:102490001124911D0895F894FFCF0C00E907010065
:1024A0000C0001FF0803100316031D0328032F036C
:1024B0003703060126014A015D0188013F034203FB
:1024C000450348034B0336003700380039003D0010
:1024D0001F001C001F001E001F001E001F001F0009
:1024E0001E001F001E001F0000000000FE06680600
:1024F00095064B07C606A406B80600000000200A91
:1025000068069D079C0753656C65632E20646520F3
:10251000546F6E6F00546F6E6F3A200020202000C1
:10252000546F6E6F20436F6E662E003000416C61F9
:10253000726D612050726F796563746F2046696EA9
:10254000616C005254432050726F796563746F2040
:1025500046696E616C0045646963696F6E003A009C
:1025600046656368613A20002F004469613A2000A3
:1025700020202050726F796563746F2046696E6108
:102580006C20200020525443202620416C61726D43
:102590006100414C41524D41204143544956414410
:1025A0004100446F6D696E676F004C756E65730016
:1025B0004D6172746573004D69C3A972636F6C6578
:1025C00073004A756576657300566965726E65734A
:1025D0000053C3A16261646F00446F005265004DF7
:0A25E0006900466100536F6C0000B3
:020000040003F7
:10E000000D9489F10D94B2F10D94B2F10D94B2F129
:10E010000D94B2F10D94B2F10D94B2F10D94B2F1F0
:10E020000D94B2F10D94B2F10D94B2F10D94B2F1E0
:10E030000D94B2F10D94B2F10D94B2F10D94B2F1D0
:10E040000D94B2F10D94B2F10D94B2F10D94B2F1C0
:10E050000D94B2F10D94B2F10D94B2F10D94B2F1B0
:10E060000D94B2F10D94B2F10D94B2F10D94B2F1A0
:10E070000D94B2F10D94B2F10D94B2F10D94B2F190
:10E080000D94B2F10D94B2F10D94B2F10D94B2F180
:10E090000D94B2F10D94B2F10D94B2F10D94B2F170
:10E0A0000D94B2F10D94B2F10D94B2F10D94B2F160
:10E0B0000D94B2F10D94B2F10D94B2F10D94B2F150
:10E0C0000D94B2F10D94B2F10D94B2F10D94B2F140
:10E0D0000D94B2F10D94B2F10D94B2F10D94B2F130
:10E0E0000D94B2F141546D656761323536300041AF
:10E0F000726475696E6F206578706C6F72657220DE
:10E1000073746B3530305632206279204D4C530099
:10E11000426F6F746C6F616465723E004875683F52
:10E1200000436F6D70696C6564206F6E203D200048
:10E130004350552054797065202020203D20005FF9
:10E140005F4156525F415243485F5F3D2000415658
:10E1500052204C696243205665723D20004743437C
:10E160002056657273696F6E203D20004350552024
:10E1700049442020202020203D20004C6F7720663D
:10E18000757365202020203D20004869676820665F
:10E190007573652020203D200045787420667573D6
:10E1A00065202020203D20004C6F636B2066757336
:10E1B000652020203D20004D617220203720323024
:10E1C000313300312E362E3800342E332E350056A2
:10E1D00023202020414444522020206F7020636F70
:10E1E00064652020202020696E73747275637469E1
:10E1F0006F6E2061646472202020496E74657272B3
:10E20000757074006E6F20766563746F7200726A49
:10E210006D702020006A6D70200057686174207056
:10E220006F72743A00506F7274206E6F7420737541
:10E2300070706F72746564004D7573742062652030
:10E2400061206C6574746572002000577269747483
:10E25000696E672045450052656164696E672045B7
:10E26000450045452065727220636E743D00504F35
:10E27000525400303D5A65726F2061646472003FF1
:10E280003D43505520737461747300403D454550C3
:10E29000524F4D207465737400423D426C696E6B41
:10E2A000204C454400453D44756D70204545505215
:10E2B0004F4D00463D44756D7020464C415348001B
:10E2C000483D48656C70004C3D4C69737420492F83
:10E2D0004F20506F72747300513D51756974005234
:10E2E0003D44756D702052414D00563D73686F7707
:10E2F00020696E7465727275707420566563746FF0
:10E30000727300593D506F727420626C696E6B00BD
:10E310002A0011241FBECFEFD1E2DEBFCDBF01E046
:10E320000CBF12E0A0E0B2E0EEE1FDEF03E00BBFB6
:10E3300002C007900D92A030B107D9F712E0A0E01B
:10E34000B2E001C01D92AE30B107E1F70F9460F367
:10E350000D948DFE01E20EBF0FEF0DBF11241FBE05
:10E360000D9460F30D9400F020E030E040ED57E0B4
:10E3700005C0FA013197F1F72F5F3F4F2817390792
:10E38000C0F308959C01260F311DC901A0E0B0E043
:10E390002F5F3F4FABBFFC018791882361F08093D3
:10E3A000C6008091C00086FFFCCF8091C0008064D1
:10E3B0008093C000EACF08958DE08093C6008091DD
:10E3C000C00086FFFCCF8091C00080648093C000B5
:10E3D0008AE08093C6008091C00086FFFCCF8091C8
:10E3E000C00080648093C00008950F94C2F10F9420
:10E3F000DCF10895FC019081992359F09093C600B7
:10E400008091C00086FFFCCF8091C0008064809323
:10E41000C0003196992379F70895282F982F929567
:10E420009F70892F805D8A3308F0895F8093C600D2
:10E430008091C00086FFFCCF8091C00080648093F3
:10E44000C000822F8F70982F905D9A3308F0995FEB
:10E450009093C6008091C00086FFFCCF8091C000E1
:10E4600080648093C00008959C01FB01853691056E
:10E470001CF46330710594F0C90164E670E00F94F8
:10E480002EFE605D7F4F6093C6008091C00086FFC6
:10E49000FCCF8091C00080648093C0002B30310598
:10E4A00014F43297B4F0C90164E670E00F942EFEC4
:10E4B0006AE070E00F942EFE605D7F4F6093C600AF
:10E4C0008091C00086FFFCCF8091C0008064809363
:10E4D000C000C9016AE070E00F942EFEC0968093E0
:10E4E000C6008091C00086FFFCCF8091C000806490
:10E4F0008093C00008951F93182F8EE692EE60E07F
:10E500000F94C2F11093C6008091C00086FFFCCF2B
:10E510008091C00080648093C0000F94DCF11F9153
:10E5200008952F923F924F925F926F927F928F92B7
:10E530009F92AF92BF92CF92DF92EF92FF920F9392
:10E540001F93DF93CF93CDB7DEB762970FB6F894E2
:10E55000DEBF0FBECDBF382E622ECA01DB015C01CB
:10E560006D01772420E2222E2E010894411C511CBB
:10E570008BC081E0A81680E0B80681E0C80680E084
:10E58000D80628F0C601AA27BB270F940DF2BB2797
:10E59000AD2D9C2D8B2D0F940DF28A2D0F940DF225
:10E5A0002092C6008091C00086FFFCCF8091C00001
:10E5B00080648093C0009DE29093C6008091C0006B
:10E5C00086FFFCCF8091C00080648093C0002092C1
:10E5D000C6008091C00086FFFCCF8091C00080649F
:10E5E0008093C00019828601750188249924A1E0D6
:10E5F0003A1651F03A1620F0B2E03B1661F409C029
:10E600000BBFF701779007C0C7010F9477FE782EF4
:10E6100002C0F7017080872D0F940DF22092C60082
:10E620008091C00086FFFCCF8091C0008064809301
:10E63000C000872D8052F401EF70F0708F3520F408
:10E64000E40DF51D708204C0E40DF51D8EE280839B
:10E650000894E11CF11C011D111D0894811C911CE2
:10E6600090E18916910409F0C2CF80E190E0A0E02A
:10E67000B0E0A80EB91ECA1EDB1E198AC2010F9493
:10E68000FAF10F94DCF16A94662009F072CF629679
:10E690000FB6F894DEBF0FBECDBFCF91DF911F91B3
:10E6A0000F91FF90EF90DF90CF90BF90AF909F9031
:10E6B0008F907F906F905F904F903F902F90089534
:10E6C0002F923F924F925F926F927F928F929F9282
:10E6D000AF92BF92CF92DF92EF92FF920F931F9370
:10E6E000DF93CF93CDB7DEB7CD53D1400FB6F894BB
:10E6F000DEBF0FBECDBF01E20EBF0FEF0DBF94B75F
:10E70000F894A89514BE80916000886180936000A1
:10E7100010926000789493FF05C0E0910002F091A0
:10E7200001021995279A2F9A8091C00082608093E8
:10E73000C00080E18093C40088E18093C1000000A4
:10E74000EE24FF24870144E0A42EB12CCC24DD2448
:10E7500024C0C5010197F1F70894E11CF11C011DCB
:10E76000111D21E2E2162EE4F20620E0020720E06D
:10E77000120718F031E0C32ED12CC801B70127ECE5
:10E780003BE140E050E00F9441FE611571058105C9
:10E79000910519F485B1805885B98091C00087FD35
:10E7A00003C0C114D104A9F2A6014F5F5F4FC25E3E
:10E7B000DE4F59834883CE51D140C25EDE4F8881FF
:10E7C0009981CE51D140019711F00D9410FEC05D9A
:10E7D000DE4F19821882C053D14060E0C15DDE4F28
:10E7E0001882CF52D14088249924C35DDE4F19820C
:10E7F0001882CD52D140C05EDE4F188219821A8233
:10E800001B82C052D140CE5CDE4F188219821A8220
:10E810001B82C253D140EE24FF2487010BBFF701B6
:10E8200007911691C45CDE4F19830883CC53D14005
:10E830000D940BFEC25EDE4F28813981CE51D1404E
:10E840002130310509F52091C600C25EDE4F1982E4
:10E850001882CE51D14022C02F5F3F4F4F4F5F4FA4
:10E86000213082E138078AE7480780E0580780F0C6
:10E87000C45CDE4FE881F981CC53D140EF5FFF4F9C
:10E8800019F0EE27FF27099420E030E040E050E047
:10E890008091C00087FFE0CF2091C600C35DDE4FAE
:10E8A00048815981CD52D1404F5F5F4FC35DDE4FEC
:10E8B00059834883CD52D140213209F063C64A3092
:10E8C000510508F05FC60894811C911C53E0851621
:10E8D000910409F059C600E010E018C081E280936D
:10E8E000C6008091C00086FFFCCF8091C00080648C
:10E8F0008093C0002F5F3F4F2931310579F70F9486
:10E90000DCF10F5F1F4F0530110519F020E030E0FA
:10E91000E5CF10920A0210920B0210920C02109294
:10E920000D02109206021092070210920802109235
:10E930000902109202021092030210920402109235
:10E9400005028FEE90EE60E00F94F5F180E191EE1C
:10E9500060E00F94C2F18091C00087FFFCCF9091DE
:10E96000C600903608F09F759032B8F09093C600BC
:10E970008091C00086FFFCCF8091C00080648093AE
:10E98000C000A0E2A093C6008091C00086FFFCCF2B
:10E990008091C00080648093C000983409F4D7C18E
:10E9A0009934B8F4923409F459C1933458F490333B
:10E9B00019F1903308F4E3C59F33A1F1903409F0C5
:10E9C000DEC5BDC0953409F470C1963409F0D7C5D1
:10E9D00098C1923509F42BC2933538F49C3409F46C
:10E9E000F5C1913509F0CBC518C2963509F445C279
:10E9F000993509F0C4C567C483E792EE62E00F94CD
:10EA0000F5F110920602109207021092080210927D
:10EA1000090210920A0210920B0210920C0210923C
:10EA20000D0213C18FE792EE62E00F94F5F18FEEC5
:10EA300090EE60E00F94F5F181E291EE60E00F94CA
:10EA4000C2F187EB91EE60E00F94F5F180E391EE77
:10EA500060E00F94C2F184EE90EE60E00F94F5F167
:10EA60008FE391EE60E00F94C2F186E090E061E008
:10EA700070E00F9434F20F94DCF18DE591EE60E0DC
:10EA80000F94C2F189EC91EE60E00F94F5F18EE401
:10EA900091EE60E00F94C2F183EC91EE60E00F9490
:10EAA000F5F18CE691EE60E00F94C2F18EE10F94E7
:10EAB0000DF288E90F940DF281E00F940DF20F949E
:10EAC000DCF18BE791EE60E00F94C2F119E0E0E039
:10EAD000F0E010935700E4918E2F0F940DF20F94F5
:10EAE000DCF18AE891EE60E00F94C2F1E3E0F0E03F
:10EAF00010935700E4918E2F0F940DF20F94DCF1D8
:10EB000089E991EE60E00F94C2F1E2E0F0E0109349
:10EB10005700E4918E2F0F940DF20F94DCF188EAE8
:10EB200091EE60E00F94C2F1E1E0F0E01093570045
:10EB30001491812F0F940DF20F94DCF107CF8BE825
:10EB400092EE62E00F94F5F18BE492EE60E00F94A8
:10EB5000F5F10F94DCF100E010E019C0C8016F2D51
:10EB60000F947FFEFF2031F489E492EE60E00F9471
:10EB7000C2F10BC0F092C6008091C00086FFFCCFAE
:10EB80008091C00080648093C0000F5F1F4FC80158
:10EB900081519F41A0E0B0E0ABBFFC01F790BAE229
:10EBA000FB1621F0E2E000301E07C1F60F94DCF105
:10EBB0000F94DCF187E592EE60E00F94F5F10F948D
:10EBC000DCF1CC24DD2400E010E01EC0C8010F946D
:10EBD00077FEF82E882331F489E492EE60E00F94FA
:10EBE000C2F10BC08093C6008091C00086FFFCCFAD
:10EBF0008091C00080648093C000FE1419F00894D6
:10EC0000C11CD11C0F5F1F4FC80181519F41A0E063
:10EC1000B0E0ABBFFC01E790FAE2EF1621F022E092
:10EC20000030120799F60F94DCF10F94DCF182E6C4
:10EC300092EE60E00F94C2F1C60161E070E00F94C3
:10EC400034F20F94DCF10F94DCF110920202109276
:10EC50000302109204021092050278CE89E992EE26
:10EC600062E00F94F5F1279A2F9A16C02F9880E052
:10EC700090E0E0EDF7E03197F1F7019684369105E9
:10EC8000C1F72F9A80E090E0E0EDF7E03197F1F7DF
:10EC9000019684369105C1F78091C00087FFE6CFC9
:10ECA0008091C00087FFFCCF64C485EA92EE62E0E9
:10ECB0000F94F5F140910202509103026091040219
:10ECC0007091050281E020E10F9491F2809102029F
:10ECD00090910302A0910402B091050280509F4FD1
:10ECE000AF4FBF4F8093020290930302A0930402A0
:10ECF000B093050280509041A040B04008F426CE69
:10ED0000A4CF83EB92EE62E00F94F5F140910602FE
:10ED100050910702609108027091090280E020E1A1
:10ED20000F9491F28091060290910702A09108023F
:10ED3000B091090280509F4FAF4FBF4F80930602A2
:10ED400090930702A0930802B0930902FFCD80ECD4
:10ED500092EE62E00F94F5F183E792EE60E00F949B
:10ED6000F5F18FE792EE60E00F94F5F18BE892EE0B
:10ED700060E00F94F5F189E992EE60E00F94F5F10F
:10ED800085EA92EE60E00F94F5F183EB92EE60E09D
:10ED90000F94F5F180EC92EE60E00F94F5F187ECC2
:10EDA00092EE60E00F94F5F188ED92EE60E00F9442
:10EDB000F5F18FED92EE60E00F94F5F18AEE92EEB0
:10EDC00060E00F94F5F183E093EEBDCD87EC92EE19
:10EDD00062E00F94F5F181E40F947BF282E40F94EA
:10EDE0007BF283E40F947BF284E40F947BF285E45E
:10EDF0000F947BF286E40F947BF287E40F947BF20E
:10EE000088E40F947BF28AE40F947BF28BE40F94F6
:10EE10007BF28CE40F947BF299CD88ED92EE62E068
:10EE20000F94F5F1772473948824992409C48FED05
:10EE300092EE62E00F94F5F140910A0250910B02BC
:10EE400060910C0270910D0282E020E10F9491F22A
:10EE500080910A0290910B02A0910C02B0910D02D8
:10EE600080509F4FAF4FBF4F80930A0290930B0289
:10EE7000A0930C02B0930D0269CD8AEE92EE62E08F
:10EE80000F94F5F184EE90EE60E00F94F5F18FECC5
:10EE900091EE60E00F94F5F1662477244301CC5D98
:10EEA000DE4F19821882C452D140D401C301B695F5
:10EEB000A79597958795CA5DDE4F88839983AA8326
:10EEC000BB83C652D140CC5DDE4FA881B981C4520C
:10EED000D1401196CC5DDE4FB983A883C452D14096
:10EEE000CD0162E070E00F9434F2B0E2B093C6005E
:10EEF0008091C00086FFFCCF8091C0008064809329
:10EF0000C000EDE2E093C6008091C00086FFFCCF18
:10EF10008091C00080648093C000F0E2F093C6004E
:10EF20008091C00086FFFCCF8091C00080648093F8
:10EF3000C000CA5DDE4FE880F9800A811B81C6529D
:10EF4000D140BB27A12F902F8F2D0F940DF2CA5DBA
:10EF5000DE4F8881C652D1400F940DF2B0E2FB2EF5
:10EF6000F092C6008091C00086FFFCCF8091C00067
:10EF700080648093C0000DE30093C6008091C000C0
:10EF800086FFFCCF8091C00080648093C00010E2B7
:10EF90001093C6008091C00086FFFCCF8091C00016
:10EFA00080648093C0008BBEF3012791C65DDE4F65
:10EFB0002883CA52D140A22EBB24CC24DD2408943D
:10EFC000611C711C811C911C8BBEF3018791282E42
:10EFD0003324442455240894611C711C811C911C09
:10EFE0008BBEF3013791C55DDE4F3883CB52D140E4
:10EFF0000894611C711C811C911C8BBEF30147910C
:10F00000C45DDE4F4883CC52D140ADEFEA2EAFEF66
:10F01000FA2EAFEF0A2FAFEF1A2F6E0C7F1C801E57
:10F02000911E142D032DF22CEE24EA0CFB1C0C1D5A
:10F030001D1D0F940DF220E22093C6008091C000A8
:10F0400086FFFCCF8091C00080648093C000C65DC5
:10F05000DE4F8881CA52D1400F940DF230E23093D6
:10F06000C6008091C00086FFFCCF8091C000806404
:10F070008093C000C45DDE4F8881CC52D1400F9494
:10F080000DF240E24093C6008091C00086FFFCCFA5
:10F090008091C00080648093C000C55DDE4F888190
:10F0A000CB52D1400F940DF250E25093C6008091A4
:10F0B000C00086FFFCCF8091C00080648093C000B8
:10F0C0008FEFE8168FEFF80680E0080780E018075A
:10F0D00031F484E092EE60E00F94C2F1DFC0D80119
:10F0E000C7018070907CA070B0708050904CA040A0
:10F0F000B040D1F52FEF3FE340E050E0E222F322B1
:10F1000004231523CA5DDE4FA880B980CA80DB8046
:10F11000C652D140AE0CBF1CC01ED11EAA0CBB1CD7
:10F12000CC1CDD1C8EE092EE60E00F94C2F1BB2798
:10F13000A12F902F8F2D0F940DF28E2D0F940DF285
:10F1400030E23093C6008091C00086FFFCCF8091F2
:10F15000C00080648093C0004EE34093C60080915D
:10F16000C00086FFFCCF87C08EE09EEFA0E0B0E03D
:10F17000E822F9220A231B239CE0E91694E9F90608
:10F1800090E0090790E0190709F088C0C45DDE4FE0
:10F19000A881CC52D140EA2EFF2400E010E0102FCD
:10F1A0000F2DFE2CEE24C55DDE4FB881CB52D14031
:10F1B000EB0EF11C011D111DD601C501817090706F
:10F1C000A070B070DC0199278827E80EF91E0A1F8D
:10F1D0001B1F20EF30E040E050E0A222B322C42207
:10F1E000D52241E1AA0CBB1CCC1CDD1C4A95D1F7F1
:10F1F000EA0CFB1C0C1D1D1D81E090E0A0E0B0E0BE
:10F20000282239224A225B2235E1220C331C441C7D
:10F21000551C3A95D1F7E20CF31C041D151D57013E
:10F220006801AA0CBB1CCC1CDD1C85E192EE60E0E1
:10F230000F94C2F1C801AA27BB270F940DF2BB2778
:10F24000A12F902F8F2D0F940DF28E2D0F940DF274
:10F2500090E29093C6008091C00086FFFCCF809121
:10F26000C00080648093C000AEE3A093C60080918C
:10F27000C00086FFFCCF8091C00080648093C000F6
:10F28000C601AA27BB270F940DF2BB27AD2D9C2DDD
:10F290008B2D0F940DF28A2D0F940DF20F94DCF14B
:10F2A000CC5DDE4FE881F981C452D140F99709F471
:10F2B0004DCBF4E0EF2EF12C012D112D6E0C7F1CA7
:10F2C000801E911EF2CD83E093EE62E00F94F5F183
:10F2D0008AE192EE60E00F94C2F18091C00087FF56
:10F2E000FCCF1091C6001F751093C6008091C0001E
:10F2F00086FFFCCF8091C00080648093C0000F9493
:10F30000DCF1812F81548A3108F036C1163409F4BA
:10F3100095C0173490F4133409F44EC0143430F40B
:10F320001134F1F0123409F01DC130C0143409F465
:10F3300059C0153409F016C16BC01A3409F4C4C0A1
:10F340001B3438F4173409F48FC0183409F00AC19B
:10F35000A1C01B3409F4D2C01C3409F003C1E8C0B9
:10F360008FEF81B90DC082B1809582B980E090E0C5
:10F37000E0EDF7E03197F1F70196883C9105C1F790
:10F380008091C00087FFEFCF12B8EFC08FEF84B934
:10F390000DC085B1809585B980E090E0E0EDF7E0A3
:10F3A0003197F1F70196883C9105C1F78091C00033
:10F3B00087FFEFCF15B8D9C08FEF87B90DC088B1DF
:10F3C000809588B980E090E0E0EDF7E03197F1F7C3
:10F3D0000196883C9105C1F78091C00087FFEFCF6F
:10F3E00018B8C3C08FEF8AB90DC08BB180958BB9A7
:10F3F00080E090E0E0EDF7E03197F1F70196883C8E
:10F400009105C1F78091C00087FFEFCF1BB8ADC059
:10F410008FEF8DB90DC08EB180958EB980E090E0F0
:10F42000E0EDF7E03197F1F70196883C9105C1F7DF
:10F430008091C00087FFEFCF1EB897C08FEF80BBD1
:10F440000DC081B3809581BB80E090E0E0EDF7E0F6
:10F450003197F1F70196883C9105C1F78091C00082
:10F4600087FFEFCF11BA81C08FEF83BB0DC084B38C
:10F47000809584BB80E090E0E0EDF7E03197F1F714
:10F480000196883C9105C1F78091C00087FFEFCFBE
:10F4900014BA6BC08FEF809301010FC080910201FD
:10F4A00080958093020180E090E0E0EDF7E03197F5
:10F4B000F1F70196883C9105C1F78091C00087FF64
:10F4C000EDCF1092020151C08FEF809304010FC065
:10F4D0008091050180958093050180E090E0E0ED4A
:10F4E000F7E03197F1F70196883C9105C1F78091DB
:10F4F000C00087FFEDCF1092050137C08FEF8093DA
:10F5000007010FC08091080180958093080180E079
:10F5100090E0E0EDF7E03197F1F70196883C910536
:10F52000C1F78091C00087FFEDCF109208011DC088
:10F530008FEF80930A010FC080910B01809580931B
:10F540000B0180E090E0E0EDF7E03197F1F70196F4
:10F55000883C9105C1F78091C00087FFEDCF1092E4
:10F560000B0103C085E292EEEEC98091C00087FFD7
:10F57000FCCF8091C600EAC988E392EEE4C98CE131
:10F5800091EEE1C988249924933011F1943028F444
:10F59000913089F09230B8F408C0953061F195301F
:10F5A000F0F0963009F048C043C02B3109F042C951
:10F5B00091E06BE13FC96227C15DDE4F2883CF52E6
:10F5C000D14092E037C9B22FA0E0622793E032C960
:10F5D000822F90E0A82BB92B622794E02BC92E3004
:10F5E00009F039C3622795E0C05DDE4F19821882A9
:10F5F000C053D1401FC9E1E0F0E0EC0FFD1FC05D3A
:10F60000DE4F08811981C053D140E00FF11F2083E4
:10F610000F5F1F4FC05DDE4F19830883C053D14079
:10F6200062270A171B0709F005C9D80196E002C92D
:10F63000261709F010C303C0973009F0FBC87724E0
:10F640009981933109F412C19431C8F4963009F4C8
:10F65000D8C0973050F4923009F406C1933009F4C1
:10F660006DC0913009F059C253C0913109F477C08F
:10F67000923108F0BBC0903109F04FC2F5C098310B
:10F6800009F487C0993150F4953109F4EFC09531F0
:10F6900008F4C6C1963109F040C2C2C19A3109F4DA
:10F6A0006CC09A3108F491C09B3109F45BC09D3164
:10F6B00009F033C29D81903359F48F81882311F46E
:10F6C0009EE11CC0813011F091E018C098E916C08D
:10F6D000892F807591F0903539F4E0E0F0E089E011
:10F6E0008093570094910AC0983539F4E3E0F0E034
:10F6F00089E080935700949101C090E01A821B82A8
:10F700008D818C831D829E831F8227E030E009C299
:10F710001A8288E08B8381E48C8386E58D8382E581
:10F720008E8389E48F8383E5888780E589878FE5E9
:10F730008A8782E38B872BE030E0F3C18A818139AD
:10F7400041F0823941F0803911F48FE005C080E04A
:10F7500003C082E001C08AE01A828B8344C0772410
:10F76000739482C08D81882311F48EE12CC0813086
:10F7700011F081E028C088E926C01A82E1E0F0E0BB
:10F7800089E08093570084918B831C8224E030E0D1
:10F79000C8C18B81803589F48C81883039F4E2E0EE
:10F7A000F0E089E08093570084910DC0E0E0F0E044
:10F7B00089E080935700849106C0E3E0F0E089E09F
:10F7C0008093570084911A82DFCF8D81836C99E0FA
:10F7D000E1E0F0E0082E90935700E89507B600FCB2
:10F7E000FDCF1A821B8223E030E09BC180EC8A832C
:10F7F000CE5CDE4F188219821A821B82C253D1401E
:10F800008EC18A8190E0A0E0B0E0582F44273327D2
:10F8100022278B8190E0A0E0B0E0DC0199278827C7
:10F82000282B392B4A2B5B2B8D8190E0A0E0B0E098
:10F83000282B392B4A2B5B2B8C8190E0A0E0B0E089
:10F84000BA2FA92F982F8827282B392B4A2B5B2BCF
:10F85000220F331F441F551FC05EDE4F288339839C
:10F860004A835B83C052D1401A8259C13A81C95C34
:10F87000DE4F3883C753D140CA5CDE4F1882C6536F
:10F88000D1408B81C82EDD24CA5CDE4F488159816E
:10F89000C653D140C42AD52A933109F082C0CE5C28
:10F8A000DE4F88819981AA81BB81C253D1408050AB
:10F8B000904CA340B04030F583E0CE5CDE4FE88052
:10F8C000F9800A811B81C253D140F70100935B008C
:10F8D00080935700E89507B600FCFDCFCE5CDE4F65
:10F8E000088119812A813B81C253D14000501F4FAA
:10F8F0002F4F3F4FCE5CDE4F088319832A833B8313
:10F90000C253D140C05EDE4F488159816A817B81FC
:10F91000C052D140DE011B9631E08C9111962C91A2
:10F9200011971296C75CDE4F2883C953D140C85C3B
:10F93000DE4F1882C853D14090E0C85CDE4FE881AA
:10F94000F981C853D1408E2B9F2B0C01FA01609393
:10F950005B0030935700E89511244E5F5F4F6F4F67
:10F960007F4F0EEFE02E0FEFF02ECE0CDF1CC114F8
:10F97000D10499F685E0C05EDE4F088119812A81A5
:10F980003B81C052D140F80120935B008093570027
:10F99000E89507B600FCFDCF81E180935700E8951C
:10F9A00035C0C05EDE4F88819981AA81BB81C0527B
:10F9B000D140B695A795979587957C018601ABE0D8
:10F9C000AA2EB12CAC0EBD1E0BC0D5016D915D01F0
:10F9D000C7010F947FFE0894E11CF11C01501040F8
:10F9E0000115110591F7A60160E070E0440F551F65
:10F9F000661F771FC05EDE4FE880F9800A811B8199
:10FA0000C052D1404E0D5F1D601F711F1A82C05E33
:10FA1000DE4F488359836A837B83C052D1407FC0C5
:10FA2000FA80C55CDE4FF882CB53D140C65CDE4F16
:10FA30001882CA53D1408B81C82EDD24C65CDE4FAC
:10FA400008811981CA53D140C02AD12A1A828981DA
:10FA5000BE016D5F7F4F843121F59601C05EDE4FA0
:10FA6000E880F9800A811B81C052D1400BBFF701A9
:10FA700087919691DB018C9311969C936E5F7F4FDB
:10FA8000D801C7010296A11DB11DC05EDE4F88835B
:10FA90009983AA83BB83C052D14022503040F1F6F3
:10FAA00036C0C05EDE4F288139814A815B81C052F9
:10FAB000D1400894C108D108760100E010E0089414
:10FAC000C11CD11C0894E11CF11C011D111DE20E8A
:10FAD000F31E041F151F21BDBB27A52F942F832FB5
:10FAE00082BD2F5F3F4F4F4F5F4FF89A80B5DB01CC
:10FAF0008D93BD012E153F054007510761F7C05E8C
:10FB0000DE4F288339834A835B83C052D1409601FC
:10FB10002D5F3F4FFB01108204C080EC8A8322E0FE
:10FB200030E08BE18093C6008091C00086FFFCCF5F
:10FB30008091C00080648093C000C15DDE4FF88179
:10FB4000CF52D140F093C6008091C00086FFFCCF19
:10FB50008091C00080648093C000432F3093C60022
:10FB60008091C00086FFFCCF8091C00080648093AC
:10FB7000C000922F2093C6008091C00086FFFCCF6A
:10FB80008091C00080648093C0008EE08093C600A6
:10FB90008091C00086FFFCCF8091C000806480937C
:10FBA000C00065E1C15DDE4FE880CF52D1406E25D7
:10FBB00069276427FE01319610C090819093C6009A
:10FBC0008091C00086FFFCCF31968091C000806498
:10FBD0008093C0006927215030402115310569F715
:10FBE0006093C6008091C00086FFFCCF8091C0006A
:10FBF00080648093C00085B1805885B9772081F4F6
:10FC0000C15DDE4F0881CF52D1400F5FC15DDE4F35
:10FC10000883CF52D14090E0A0E0B0E00D941AF4F8
:10FC200027982F9880E090E020ED37E0F901319798
:10FC3000F1F7019684369105C9F700008091C00064
:10FC40008D7F8093C00081E180935700E895EE2777
:10FC5000FF270994FFCF90E00D941AF497FB092E2B
:10FC600007260AD077FD04D02ED006D000201AF443
:10FC7000709561957F4F0895F6F7909581959F4F08
:10FC80000895A1E21A2EAA1BBB1BFD010DC0AA1FDD
:10FC9000BB1FEE1FFF1FA217B307E407F50720F0F5
:10FCA000A21BB30BE40BF50B661F771F881F991F70
:10FCB0001A9469F760957095809590959B01AC01B9
:10FCC000BD01CF010895AA1BBB1B51E107C0AA1FAC
:10FCD000BB1FA617B70710F0A61BB70B881F991FED
:10FCE0005A95A9F780959095BC01CD010895F99991
:10FCF000FECF92BD81BDF89A992780B50895262F31
:10FD0000F999FECF1FBA92BD81BD20BD0FB6F89400
:0EFD1000FA9AF99A0FBE01960895F894FFCF63
:00000001FF
